:107000000C942A380C9447380C9447380C94473821
:107010000C9447380C9447380C9447380C944938F2
:107020000C9447380C9447380C9447380C944738E4
:107030000C9447380C94393A0C9447380C944738E0
:107040000C9447380C9447380C9447380C944738C4
:107050000C94473811241FBECFE5D8E0DEBFCDBF6A
:1070600010E0A0E6B0E0EAEDF7E702C005900D926F
:10707000A037B107D9F711E0A0E7B0E001C01D9239
:10708000A23EB107E1F70E94F13A0C94EB3B0C945D
:1070900000381F920F920FB60F9211242F933F9337
:1070A0008F939F9380917000909171009C012F5F4E
:1070B0003F4F309371002093700023E0883E920789
:1070C000A8F010927100109270008091720090915F
:1070D0007300019690937300809372009FB7F894A9
:1070E000809174008260809374009FBF9F918F9104
:1070F0003F912F910F900FBE0F901F9018950F93F7
:107100001F93CF93DF938C01DB017FB7F894E19954
:10711000FECF83E0F80180935700E89507B600FCA6
:10712000FDCFED01C058DF4FA8014250504061E053
:107130004A1B5B0B8C9111963C91119720E0F90151
:10714000E80FF11DCF011296FD01E40FF51F0C01B0
:1071500060935700E8951124CA17DB0759F785E0BB
:10716000F80180935700E89507B600FCFDCF81E158
:1071700080935700E8957FBF1092760081E080935E
:1071800079008AE790E06FEF70E040E850E00E94FD
:10719000E43BDF91CF911F910F9108959FB7F89431
:1071A000E0E0F0E083E080935700E89507B600FC4C
:1071B000FDCFE058FF4F20E6E030F207A1F79FBF78
:1071C0000895662301F1FC0180E090E040E010C0EA
:1071D000232F21562630A0F0232F82959295907F61
:1071E0009827807F9827820F911D4F5F461751F097
:1071F0003191232F20532A3080F32151263040F73C
:10720000265FEBCF089580E090E008956F927F9223
:107210009F92AF92BF92CF92DF92EF92FF920F9325
:107220001F93CF93DF938C01FC0180818A3379F027
:1072300084E0DF91CF911F910F91FF90EF90DF904D
:10724000CF90BF90AF909F907F906F900895C801AE
:10725000019662E00E94E138C82E982EC80103967C
:1072600064E00E94E1383C01C801079662E00E9498
:10727000E138D82EAC2CBB2445E0E42EF12CEA0CEE
:10728000FB1CEE0CFF1CD0E0C0E007C00196800F95
:10729000911F62E00E94E138C82EDC0DCE5F8C2F7A
:1072A00090E08E159F0594F3DD2311F083E0C1CFAC
:1072B000DD2009F043C080E89FEF68227922E0904A
:1072C0007600EE2069F08091770090917800861525
:1072D000970531F06AE770E00E947F38E090760011
:1072E000AE0CB11C91E8A916B10494F5992061F196
:1072F000CE2DCF5F075F1F4FD0E00FC00E94E13857
:10730000ED2DF0E0E650FF4F8083C0937600DF5F05
:10731000CF5F0E5F1F4FD915B0F4DD2EDE0CC80114
:1073200062E06114710451F30E94E138ED2DF0E048
:10733000EA58FF4F8483C0937600E9CFF1E0DF166F
:1073400059F085E076CFE90C709278006092770072
:10735000E7FC28C080E06DCF9920A1F0E090760096
:10736000E80129969E0CCE0162E00E94E138EE2DE4
:10737000F0E0EA58FF4F8483E394E092760022968F
:10738000E91489F780917700909178006AE770E0BE
:107390000E947F3880E090E06AEF70E00E947F38C2
:1073A00082E047CFC3016AE770E00E947F3880E047
:1073B00040CFEEE0F0E0E49181E0EF3F09F0089586
:1073C00080E00895882341F481E08BBF80E08BBF8B
:1073D000E0E0F0E009950895E0E0F0E70995089510
:1073E0008FED9EE29BBD8ABD89E08EBD80E189BFA5
:1073F000089581E08BBF82E08BBF109271001092E4
:10740000700010927300109272001092740010922B
:10741000750010927600109279008AE790E06FEF85
:1074200070E040E850E00E94E43B8AEF90E06FEFAC
:1074300070E040E850E00E94E43B08951AB88CE008
:1074400089B910BC599A88E98AB986E880BD0E943A
:107450002A3A089584E4EAE7F1E0DF011D928A9573
:10746000E9F784E2EEEBF1E0DF011D928A95E9F79E
:1074700008951F920F920FB60F9211248F939F932E
:10748000EF93FF938BB19CB18BB1887171F05F9BCF
:1074900003C08CB15F99FDCFFF91EF919F918F91C8
:1074A0000F900FBE0F901F901895923099F0933067
:1074B000D9F08091BC01813079F78091BD0182348F
:1074C00058F7E82FF0E0E658FE4F90838F5F8093E7
:1074D000BD01E2CF8091BC018230F1F21092BD017A
:1074E00081E08093BC01D8CF8091BC018130A1F6AE
:1074F0008091BD01882361F082E08093BC019FB739
:10750000F894809174008460809374009FBFC4CF0E
:107510001092BD01C1CFCF93482F792F8091E00108
:10752000882321F4C62FCE5FC53218F080E0CF91BA
:1075300008952EEB31E0C901642F4C2F50E00E94DA
:10754000DB3BC093E10182E08093E0019FB7F894B8
:10755000809174008860809374009FBF81E0CF9118
:1075600008958091E001823009F008955D9BFECF7F
:1075700082E08CB92091E101222361F080E0E82FC4
:10758000F0E0E254FE4F90815D9BFECF9CB98F5F8F
:107590008217A8F35D9BFECF83E08CB984E2EEEB0B
:1075A000F1E0DF011D928A95E9F70895CF93DF930B
:1075B0002091BC01223021F080E0DF91CF9108952D
:1075C0004091BD01CAE7D1E0BE0150E00E94DB3B23
:1075D00084E4FE0111928A95E9F781E0DF91CF9171
:1075E0000895CF93DF93CDB7DEB7C656D0400FB620
:1075F000F894DEBF0FBECDBF0E94F9390E941E3A3B
:107600008FED9EE29BBD8ABD89E08EBD80E189BF82
:10761000789482E4898386E78A83DE011396E0E624
:10762000F0E08FE001900D928150E1F7CE010196DC
:107630006FE00E948B3ADD24EEE0F0E01491EE243E
:10764000FF24A6961FAFA69702E48091740080FFE6
:1076500008C09FB7F894809174008E7F8093740067
:107660009FBF8091740081FF1BC09FB7F8948091E9
:1076700074008D7F809374009FBF80917200909101
:1076800073008330910560F0DD2089F51F3F79F1AB
:1076900081E08BBF80E08BBFF7010995DD24D39497
:1076A0008091740082FF10C09FB7F894809174009D
:1076B0008B7F809374009FBFCE0183960E94D63A41
:1076C0008130C1F0DD24D3948091740083FFBDCF5D
:1076D0009FB7F89480917400877F809374009FBF58
:1076E0000E94B13A8091740080FFBBCFB2CFDD24FD
:1076F000D394D6CF8BA18637C1F0823419F0DD2424
:10770000D394A3CF89838CA18A83803789F1813771
:1077100009F18336E1F085E48A83CE01019660E0C9
:107720000E948B3ADD24D394CFCF09838A83FE0154
:107730003396A0E6B0E08FE00D9001928150E1F722
:10774000CE0101966FE00E948B3A8BA1D6CF0E94AA
:10775000CE38E3CFA6968FADA6978F3FE9F081E0B4
:107760008BBF80E08BBFF7010995DD24D394ACCFAC
:10777000CE0185960E940639833020F090917900E1
:10778000913081F0805D8B83CE01019661E00E9493
:107790008B3ADD24D39498CFE0E0F0E70995DD241F
:1077A000D39492CFA7968FAFA7970E94CE38A79673
:1077B0008FADA797E7CFFB01DC0102C001900D92CE
:1077C00041505040D8F70895DC0101C06D934150FD
:0A77D0005040E0F70895F894FFCF51
:1077DA00426F6F746C6F616465722056302E32008E
:040000030000700089
:00000001FF
